:100000000C945D000C9485000C9485000C94850084
:100010000C9485000C9485000C9485000C9485004C
:100020000C9485000C9485000C9485000C9485003C
:100030000C9485000C9485000C9485000C9485002C
:100040000C9466020C9485000C9434020C940E02FD
:100050000C9485000C9485000C9485000C9485000C
:100060000C9485000C9485000000000024002700FB
:100070002A0000000000250028002B0004040404CE
:100080000404040402020202020203030303030342
:10009000010204081020408001020408102001021F
:1000A00004081020000000080002010000030407FB
:1000B00000000000000000003B0411241FBECFEF31
:1000C000D8E0DEBFCDBF11E0A0E0B1E0E4E2F9E0AE
:1000D00002C005900D92AE32B107D9F721E0AEE231
:1000E000B1E001C01D92AA3DB207E1F710E0CDE5F5
:1000F000D0E004C02197FE010E948A04CC35D107CC
:10010000C9F70E94B0020C9490040C940000E6EA37
:10011000F0E02491E2E9F0E09491EEE7F0E0E49180
:10012000EE23C9F0222339F0233001F1A8F4213065
:1001300019F1223029F1F0E0EE0FFF1FEE58FF4FCA
:10014000A591B4912FB7F894EC91811126C09095A8
:100150009E239C932FBF08952730A9F02830C9F023
:10016000243049F7209180002F7D03C0209180002A
:100170002F7720938000DFCF24B52F7724BDDBCFEE
:1001800024B52F7DFBCF2091B0002F772093B000B6
:10019000D2CF2091B0002F7DF9CF9E2BDACFAF9236
:1001A000BF92CF92DF92EF92FF920F931F93CF9364
:1001B000DF936C017B018B01040F151FEB015E01C6
:1001C000AE18BF08C017D10759F06991D601ED915B
:1001D000FC910190F081E02DC6010995892B79F7FA
:1001E000C501DF91CF911F910F91FF90EF90DF90AC
:1001F000CF90BF90AF900895FC01538D448D252F73
:1002000030E0842F90E0821B930B541710F0CF96B0
:10021000089501970895FC01918D828D981761F0E2
:10022000A28DAE0FBF2FB11D5D968C91928D9F5FF9
:100230009F73928F90E008958FEF9FEF0895FC01D8
:10024000918D828D981731F0828DE80FF11D858D8B
:1002500090E008958FEF9FEF0895FC01918D228D1E
:10026000892F90E0805C9F4F821B91098F739927A3
:1002700008958DE391E00E942D0121E0892B09F47E
:1002800020E0822F089580E090E0892B29F00E94E1
:10029000390181110C9400000895FC01A48DA80F70
:1002A000B92FB11DA35ABF4F2C91848D90E00196B8
:1002B0008F739927848FA689B7892C93A089B189D8
:1002C0008C91837080648C93938D848D981306C079
:1002D0000288F389E02D80818F7D80830895EF92DD
:1002E000FF920F931F93CF93DF93EC0181E0888FF0
:1002F0009B8D8C8D98131AC0E889F989808185FFC0
:1003000015C09FB7F894EE89FF896083E889F98961
:1003100080818370806480839FBF81E090E0DF9163
:10032000CF911F910F91FF90EF900895F62E0B8DB6
:1003300010E00F5F1F4F0F731127E02E8C8D8E1171
:100340000CC00FB607FCFACFE889F989808185FFD8
:10035000F5CFCE010E944D01F1CFEB8DEC0FFD2FBB
:10036000F11DE35AFF4FF0829FB7F8940B8FEA8993
:10037000FB8980818062CFCFCF93DF93EC01888DA2
:100380008823B9F0AA89BB89E889F9898C9185FD10
:1003900003C0808186FD0DC00FB607FCF7CF8C919E
:1003A00085FFF2CF808185FFEDCFCE010E944D0108
:1003B000E9CFDF91CF9108953FB7F89480912F0155
:1003C00090913001A0913101B091320126B5A89BE6
:1003D00005C02F3F19F00196A11DB11D3FBFBA2FD7
:1003E000A92F982F8827BC01CD01620F711D811D97
:1003F000911D42E0660F771F881F991F4A95D1F71C
:100400000895FC0101900020E9F73197AF01481BE6
:10041000590BBC018DE391E00C94CF001F920F9219
:100420000FB60F9211242F933F934F935F936F93C7
:100430007F938F939F93AF93BF93EF93FF938DE33E
:1004400091E00E944D01FF91EF91BF91AF919F917B
:100450008F917F916F915F914F913F912F910F906D
:100460000FBE0F901F9018951F920F920FB60F920C
:1004700011242F938F939F93EF93FF93E0914D015E
:10048000F0914E018081E0915301F091540182FD81
:100490001BC09081809156018F5F8F73209157010F
:1004A000821741F0E0915601F0E0E35CFE4F958F3A
:1004B00080935601FF91EF919F918F912F910F9013
:1004C0000FBE0F901F9018958081F4CF1F920F924E
:1004D0000FB60F9211242F933F938F939F93AF9357
:1004E000BF938091330190913401A0913501B09177
:1004F000360130912E0123E0230F2D3758F5019658
:10050000A11DB11D20932E018093330190933401DE
:10051000A0933501B093360180912F019091300165
:10052000A0913101B09132010196A11DB11D8093BE
:100530002F0190933001A0933101B0933201BF910C
:10054000AF919F918F913F912F910F900FBE0F9080
:100550001F90189526E8230F0296A11DB11DD2CF3A
:10056000CF93DF93CDB7DEB7A1970FB6F894DEBF78
:100570000FBECDBF789484B5826084BD84B58160A0
:1005800084BD85B5826085BD85B5816085BD80915E
:100590006E00816080936E001092810080918100D6
:1005A00082608093810080918100816080938100CE
:1005B000809180008160809380008091B100846090
:1005C0008093B1008091B00081608093B0008091F1
:1005D0007A00846080937A0080917A0082608093B0
:1005E0007A0080917A00816080937A0080917A000D
:1005F000806880937A001092C100E0914D01F091E3
:100600004E0182E08083E0914901F0914A0110821D
:10061000E0914B01F0914C018FEC808310925501D9
:10062000E0915101F091520186E08083E0914F0109
:10063000F0915001808180618083E0914F01F091C1
:100640005001808188608083E0914F01F0915001DA
:10065000808180688083E0914F01F091500180811A
:100660008F7D8083E2E9F0E02491EEE7F0E0849171
:10067000882399F090E0880F991FFC01E859FF4FFB
:10068000A591B491FC01EE58FF4F859194918FB7DD
:10069000F894EC91E22BEC938FBF9AE0492E512C09
:1006A000612C712C20E0222E20E0322E01E010E09F
:1006B00020E420937C0080917A00806480937A000B
:1006C00080917A0086FDFCCF90917800809179002E
:1006D0008927982789278039E1E09E071CF58091BA
:1006E0003B0190913C01892B99F410933C010093BC
:1006F0003B012FB7F8948091330190913401A09180
:100700003501B09136012FBF90933A0180933901A2
:100710002114310469F20E943901882349F20E94B0
:100720000000C6CF8039914099F380913B019091B0
:100730003C01019769F710923C0110923B018FB781
:10074000F894C0903301D0903401E0903501F090DE
:1007500036018FBFD0923801C092370180913901A4
:1007600090913A01C81AD90A0D2C000CEE08FF0826
:10077000F7FE6BC06DE28DE391E00E946F012227CE
:100780003327A9012C193D094E095F0919A2CE0191
:1007900081967C01CA01B901A30192010E946804FB
:1007A000605DF70162937F01211531054105510517
:1007B00089F7E114F10419F0C7010E94010282E1F6
:1007C00091E00E94010280913701909138012091BF
:1007D000390130913A01821B930B893E93400CF40E
:1007E00097CF81E00E94870085E191E00E9401029D
:1007F00082E191E00E9401020E94DC014B015C0158
:1008000080EDC82E87E0D82EE12CF12C0E94DC016F
:10081000681979098A099B09683E73408105910529
:10082000A8F321E0C21AD108E108F10888EE880E89
:1008300083E0981EA11CB11CC114D104E104F10491
:1008400029F780E00E94870063CFA701960119A2D3
:10085000CE0181967C01CA01B901A30192010E94D7
:100860006804605DF70162937F0121153105410540
:10087000510589F79ECFEDE3F1E01382128288EEF5
:1008800093E0A0E0B0E084839583A683B78384E0FF
:1008900091E09183808385EC90E09587848784EC58
:1008A00090E09787868780EC90E0918B808B81EC3D
:1008B00090E0938B828B82EC90E0958B848B86EC1E
:1008C00090E0978B868B118E128E138E148E089566
:1008D000A1E21A2EAA1BBB1BFD010DC0AA1FBB1F44
:1008E000EE1FFF1FA217B307E407F50720F0A21BB6
:1008F000B30BE40BF50B661F771F881F991F1A9423
:1009000069F760957095809590959B01AC01BD014C
:10091000CF010895EE0FFF1F0590F491E02D09948B
:04092000F894FFCF79
:10092400000000006F01CF00FC00BC012D010B0191
:100934001F010D0A00416C657274322121212121AD
:0E094400212121212121212121212121000019
:00000001FF
